:02000000762860
:1000060083120313FB01FA01F9018030F800F10CA9
:10001600F00C031C17287408F90775080318750FE8
:10002600FA070318FB0A0310F01F1F287408FA07C3
:1000360075080318750FFB07FB0CFA0CF90CF80C86
:10004600031C0A287B08F3007A08F2007908F100FD
:060056007808F00008002C
:0C005C008312031395011712971208007D
:10006800831603130711831212150C309704080026
:10007800831603131208013EF000F1010318F10A78
:1000880083122508F400F50103200630F2007008F9
:10009800F4007108F500720803195728F50CF40CE0
:1000A800F513FF3E50280430F1007408F000710881
:1000B80003196228F00D7010FF3E5C28303070057F
:1000C800F3007408F0007508F100F10CF00CF1135E
:1000D800F10CF00CF113700895000F3097057308B8
:0400E8009704080071
:1000EC00043083120313A4008316870101308600A9
:1000FC00831212149210F930831692002E203420A1
:10010C002408A5003C20A201A301A201A301803078
:10011C002306F00080307002031D9628193022024D
:10012C000318AE280A302407F0007008A4007008E9
:10013C00A5003C208230FC00DD30FD00FD0BA42826
:10014C00FC0BA42800000000A20A0319A30A8D28A6
:10015C00A201A30180302306F00080307002031D41
:10016C00B928193022020318D1280A302402F000D1
:10017C007008A4007008A5003C208230FC00DD3023
:10018C00FD00FD0BC728FC0BC72800000000A20ACD
:10019C000319A30AB028A5013C200630FB0013303C
:1001AC00FC00AD30FD00FD0BD928FC0BD928FB0B56
:0A01BC00D928000000008928E2287D
:02400E005A0056
:00000001FF
