:02000000842A50
:10000800FF00030E8301CB000A08CC008A017008A8
:10001800A2007108A1007208A0000B1CFE28061897
:100028001828061C1828FE280B104808003A03193F
:1000380026280F08C600C5010E08C5070318C60AFA
:100048008F018E01EA288F018E0110140130C8003B
:10005800C401FE284608073C031D34284508D03C47
:10006800031C3F2802304602031D3C28BC304502D1
:10007800031C3F284228C8011010FE2844080D3CE4
:10008800F000F101031CF1037008F2000130F000E8
:100098000030F100720803195628F00DF10D7010A8
:1000A800FF3E4F287008C9047108CA04C40A4408EE
:1000B8000D3C031862283F148B11FE284608043CA7
:1000C800031D68284508B03C031875280230C8008D
:1000D80044080D3A031D74283F1449108B11FE285B
:1000E80077280330C800FE284608073C031D7E28F1
:1000F8004508D03C031C892802304602031D862887
:10010800BC304502031C89288C28C8011010FE2821
:1001180044080D3CF000F101031CF1037008F200E3
:100128000130F0000030F10072080319A028F00D2A
:10013800F10D7010FF3E9928F009F1097008C90502
:100148007108CA05C40A4608043C031DAD284508C1
:10015800B03C0318B2280130C800B4280430C800E5
:10016800FE284608043C031DBB284508B03C031C78
:10017800C62802304602031DC328BC304502031CB2
:10018800C628C9281010C801FE280130C800FE285A
:100198004608043C031DD2284508B03C031CDD2852
:1001A80002304602031DDA28BC304502031CDD2854
:1001B800E0281010C801FE280230C80044080D3A93
:1001C800031DE9283F1449108B11FE284808003AFE
:1001D800031927284808013A03192E284808023A23
:1001E800031978284808033A0319B5284808043A37
:1001F8000319CC280C1C03290C10C8011010220864
:10020800F0002108F1002008F2004C088A004B0E8B
:080218008300FF0E7F0E0900B8
:0E022000533083120313FD00FD0B1429080058
:0C022E00000000000000000000000800BC
:10023A00243083120313FC00B530FD00FD0B232983
:0A024A00FC0B23290000000008004F
:1002540083120313D21B3029871331298717521BAA
:100264003529071336290717D21A3A2987123B2949
:100274008716521A3F29071240290716BF18442926
:10028400071545290711871517218711D2194C29FC
:1002940087134D2987175219512907135229071714
:1002A400D218562987125729871652185B29071224
:1002B4005C290716BF1860290715612907118715DE
:1002C40017218711BF1C68291D21692910210800E5
:1002D40083120313BF105108D2002A21BF1408004F
:0E02E400831203133E088A003D0882000800C2
:1002F2008B29803083120313CD009C29C030CD009E
:100302009C299430CD009C29D430CD009C2980308A
:10031200CD009C294D08013A03197A294D08023A69
:1003220003197F294D08033A031982294D08043A1B
:10033200031985298829831203134E03F0004D08FF
:10034200F0077008CD00BF147008D2002A21BF1038
:0A0352004F08D2002A21BF14080052
:10035C00C029803083120313CD00D129C030CD00C9
:10036C00D1299430CD00D129D430CD00D129803081
:10037C00CD00D1294D08013A0319AF294D08023A95
:10038C000319B4294D08033A0319B7294D08043A47
:10039C000319BA29BD294E03F0004D08F007700867
:1003AC00CD007008D2002A21BF10D00150084F0791
:1003BC00840000080319EA2950084F07840000083C
:0C03CC00D1006A21D00ADC29BF1408000F
:1003D8008316031387110711071287120713871350
:1003E80083128711071187130713871207121D211C
:1003F8001D211D21871607168715172187111D2115
:100408008715172187111D218715172187111D2190
:1004180007128715172187111D21871517218711A5
:10042800871287178715172187111D21871307162C
:1004380087151721871107128715172187111D2185
:1004480087151721871107168715172187111D2171
:100458000712871517218711871707178716071699
:0C0468008715172187111D21BF14080003
:10047400831203134D08F000F00CF013F00CF0138A
:10048400F00CF013F00CF0130030F1002B30F007F7
:1004940003300318013EF1077008BD007108BE0067
:1004A40072218A110A12F0004E088400700880003C
:1004B4004E0AF2000F304D05F0000030F1002B30F1
:1004C400F00703300318013EF1077008BD007108FE
:1004D400BE0072218A110A12F000720884007008AA
:0C04E400800002304E07840080010800F8
:1004F00072218A110A128000840ABD0A0319BE0AF9
:08050000F003031D782A080036
:10050800413083120313A3004430A4005330A500E4
:100518003A30A6003030A7007830A8003030A90063
:100528003030AA002030AB002030AC005430AD0091
:100538004730AE004C30AF003A30B0002030B10048
:100548003030B200B3014330B4004D30B500443010
:10055800B6003A30B7003030B8007830B9003030E3
:10056800BA003030BB00BC013F10C801EC210C3090
:10057800D2002A210130D2002A210C100B10831638
:100588000C14103083129000C8308B000130CD005D
:100598000130CE002330CF00AE210230CD00013033
:1005A800CE003430CF00AE213F18DB2AD82A3F10C6
:1005B800C80110100B30F2004908F0004A08F10099
:1005C80072080319EC2AF10CF00CF113FF3EE52A2E
:1005D8007018F02A3F11F12A3F150630F200490839
:1005E800F0004A08F10072080319FF2AF10CF00C18
:1005F800F113FF3EF82A1F307005C7003F30490548
:10060800C3000130CD001030CE0000303F1901305A
:10061800CF003030CF0779214708CD004030CE00D9
:100628003A220130CD000730CE004030CF00AE2155
:100638004308CD004030CE003A220230CD000730CA
:0E064800CE004030CF00AE218B15D82A2A2BD1
:100656003034313432343334343435343634373458
:1006660038343934413442344334443445344634DE
:02400E005A0056
:00000001FF
