:02000000172BBC
:1000060083120313E803E8036808003C031810286A
:10001600E8030000000000000728000000000000C0
:06002600000000000800CC
:10002C0083120313F801F9011030FC00710DF80D67
:10003C00F90D7408F8027508031C750FF902031802
:10004C002E287408F80775080318750FF9070310A4
:0A005C00F00DF10DFC0B1C2808004C
:0E0066008312031324088A0023088200080076
:10007400831203132230FC00F801F901FA01FB0199
:10008400FC03031970280310FB0CFA0CF90CF80C90
:10009400F30CF20CF10CF00C031C4228FC030319C2
:1000A40062287408F80775080318750FF9077608AD
:1000B4000318760FFA0777080318770FFB0746280B
:1000C4007408F80775080318750FF90776080318FC
:0E00D400760FFA0777080318770FFB0708006E
:1000E200203083120313F0004E30F100F201F301CD
:0200F200080004
:1000F40083120313FB01FA01F901F801A001730D46
:10010400F80D7408F8027508031C750FF9027608D7
:10011400031C760FFA027708031C770FFB02000119
:10012400031C0130A002F30D0730FC00730DF80D21
:10013400F90DFA0DFB0DA00D7408731CB328F80219
:100144007508031C750FF9027608031C760FFA0272
:100154007708031C770FFB020001031C0130A00287
:10016400C428F80775080318750FF90776080318EB
:10017400760FFA0777080318770FFB0700010318B7
:100184000130A007F30DFC0B9828720DF80DF90D42
:10019400FA0DFB0DA00D7408731CE228F802750813
:1001A400031C750FF9027608031C760FFA02770810
:1001B400031C770FFB020001031C0130A002F3288B
:1001C400F80775080318750FF90776080318760FF2
:1001D400FA0777080318770FFB07000103180130AB
:1001E400A007F20D0730FC00720DF80DF90DFA0DA1
:1001F400FB0DA00D7408721C1129F8027508031C6C
:10020400750FF9027608031C760FFA027708031CAF
:10021400770FFB020001031C0130A0022229F8071A
:1002240075080318750FF90776080318760FFA078F
:1002340077080318770FFB07000103180130A007A4
:10024400F20DFC0BF628710DF80DF90DFA0DFB0DEE
:10025400A00D7408721C4029F8027508031C750F60
:10026400F9027608031C760FFA027708031C770F4D
:10027400FB020001031C0130A0025129F807750894
:100284000318750FF90776080318760FFA0777082D
:100294000318770FFB07000103180130A007F10DC5
:1002A4000730FC00710DF80DF90DFA0DFB0DA00DD2
:1002B4007408711C6F29F8027508031C750FF90284
:1002C4007608031C760FFA027708031C770FFB02EB
:1002D4000001031C0130A0028029F80775080318E7
:1002E400750FF90776080318760FFA0777080318CD
:1002F400770FFB07000103180130A007F10DFC0B79
:100304005429700DF80DF90DFA0DFB0DA00D7408AC
:10031400711C9E29F8027508031C750FF9027608F2
:10032400031C760FFA027708031C770FFB02000107
:10033400031C0130A002AF29F80775080318750FD4
:10034400F90776080318760FFA0777080318770F6A
:10035400FB07000103180130A007F00D0730FC0073
:10036400700DF80DF90DFA0DFB0DA00D7408701C3D
:10037400CD29F8027508031C750FF9027608031CD1
:10038400760FFA027708031C770FFB020001031CA7
:100394000130A002DE29F80775080318750FF90764
:1003A40076080318760FFA0777080318770FFB0708
:1003B400000103180130A007F00DFC0BB2297018DE
:1003C400F1297408F80775080318750FF9077608FA
:1003D4000318760FFA0777080318770FFB0708004E
:1003E4007120E830F4000330F500F601F7013A20FB
:1003F4007008E4007108E5007208E6007308E7007D
:100404005C08F4005D08F500F601F7017A20700835
:10041400E4007108E5007208E6007308E70070085C
:10042400F5007108F6007208F7007308F800F80C7C
:10043400F70CF60CF50CF813F80CF70CF60CF50C9D
:10044400F8137508F0007608F1007708F2007808D0
:10045400F300F30CF20CF10CF00CF3137008E00051
:100464007108E10071205E08F4005F08F500F601F0
:10047400F7013A206008F9006108FA00FB01FC0169
:100484000330F8007908F4007A08F5007B08F600D8
:100494007C08F70078080319562AF40DF50DF60DBB
:1004A400F70D7410FF3E4D2A7A207008E40071089D
:1004B400E5007208E6007308E7000A30F400003033
:1004C400F5006008F0006108F10016207008E000F3
:1004D4007108E10000307102031D722A03307002BA
:1004E4000318752AC22A250884006708003C031DE6
:1004F400852A6608003C031D852A6508003C031D07
:10050400852A6408003C0318C02A26088004610870
:1005140003199C2AE201E30100306302031D942ABB
:100524006108620203189C2AE8010320E20A031905
:10053400E30A8E2A6008E800032027088005610882
:100544000319B42AE201E30100306302031DAC2A5B
:10055400610862020318B42AE8010320E20A0319BD
:10056400E30AA62A6008E80003200130E402031C21
:10057400E502031CE602031CE702772A270880052C
:0205840008006D
:1005860083120313FB01FA01F9018030F800F10C24
:10059600F00C031CD72A7408F90775080318750FA1
:1005A600FA070318FB0A0310F01FDF2A7408FA077C
:1005B60075080318750FFB07FB0CFA0CF90CF80C01
:1005C600031CCA2A7B08F3007A08F2007908F100B6
:0605D6007808F0000800A7
:1005DC0033208A110A128000840AA30A0319A40A80
:0805EC00F003031DEE2A0800D4
:1005F400831203135C08A5005D08F1000130F000CC
:1006040071080319092BF00D7010FF3E032B7008BD
:10061400A600F0097008A70080305C078400700809
:0A06240080058413700880050800AB
:10062E00193083120313A100A2010630AA00013073
:10063E00AB000630AC000130AD002630AE0001300C
:10064E00AF000630B0000130B1005D30B2000130B5
:10065E00B3004A30B4000130B5000630B6000130A8
:10066E00B7000630B8000130B9002630BA000130AC
:10067E00BB000630BC000130BD008830BE0001302A
:10068E00BF005D30C0000130C1000630C200013035
:10069E00C3000630C4000130C5000C30C600023065
:1006AE00C700B830C8000130C9005D30CA00013043
:1006BE00CB004A30CC000130CD002630CE000130C8
:1006CE00CF00D230D0000130D100D230D200013074
:1006DE00D300B830D4000130D5005D30D6000130E3
:1006EE00D7008830D8000130D9005D30DA000130F3
:1006FE00DB0001308316A0000130A1000230A20001
:10070E000230A3000230A4000330A5000130A60081
:10071E000130A7000230A8000230A9000230AA0062
:10072E000330AB000130AC000130AD000230AE0042
:10073E000230AF000230B0000230B1000230B20021
:10074E000130B3000130B4000230B5000230B60003
:10075E000230B7000330B80086010730DC000230EB
:10076E00DD00FA22A801A90180302906F0008030B0
:10077E0022067002031DC52B210828020318F92B2F
:10078E002808F0002908F100F00DF10D7010700826
:10079E002A3E84000008DC00840A0008DD002808D8
:1007AE00A03E84000008F0000030F1009030F4000C
:1007BE000130F500C3227008DE007108DF00F2215F
:1007CE000330FB008A30FC005530FD00FD0BED2B95
:1007DE00FC0BED2BFB0BED2B00000000A80A031900
:1007EE00A90ABB2B4D30FB001930FC004F30FD0029
:1007FE00FD0BFF2BFC0BFF2BFB0BFF2B0000000058
:04080E00B92B082CCE
:02400E0012009E
:00000001FF
