:02000000F22DDF
:0C000600000000000000000000000800E6
:10001200243083120313FC00B530FD00FD0B0F28C2
:0A002200FC0B0F280000000008008E
:0E002C00533083120313FD00FD0B1A28080049
:10003A0083160313AD1B24288312871326288312E1
:10004A00871783162D1B2C28831207132E28831239
:10005A0007178316AD1A342883128712362883129B
:10006A00871683162D1A3C28831207123E288312FC
:10007A000716DB184228071543280711871503209E
:10008A0087118316AD194C28831287134E288312C1
:10009A00871783162D19542883120713562883129B
:1000AA0007178316AD185C28831287125E288312FD
:1000BA00871683162D18642883120712662883125E
:1000CA000716DB186A2807156B28071187150320FE
:0E00DA008711DB1C72280920732816200800ED
:1000E80083120313DB1083162C08AD001D20DB14CC
:0200F8000800FE
:1000FA0083160313AC03AC032C08003C03188A28AC
:10010A00AC0300000000000081280000000000008D
:06011A00000000000800D7
:10012000FB09FA09F909F809F80A0319F90A031988
:08013000FA0A0319FB0A08009A
:10013800831603132808840080010130AA00A9014E
:100148005B105F0884005A08003A031DBD285E084A
:100158000005F1007108003A0319BC285B1CBB2894
:1001680028088400FF3080002908F0000F29AB28F8
:10017800CE285E080005F1007108003A031DCE285C
:100188005B1CCD2828088400FF3080002908F00077
:100198000F29BD285C08AC007D205D08AC007D20DF
:1001A8002A080319EB285E080005F1007108003AD7
:1001B8000319E0282A08A904AA0D2A1002305D02B2
:1001C800AC007D200000000000000000D4285A0880
:1001D800003A031DFD285E080005F1007108003A89
:1001E8000130031D0030F0002808840070088000EA
:1001F8000A295E080005F1007108003A0130031968
:100208000030F00028088400700880005A08290689
:08021800F0007008A9000800C5
:100220007408F8027508031C750FF9027608031CA0
:10023000760FFA027708031C770FFB02F30D0730E5
:10024000FC00730DF80DF90DFA0DFB0D7408731C0D
:100250003729F8027508031C750FF9027608031C8C
:10026000760FFA027708031C770FFB024429F80780
:1002700075080318750FF90776080318760FFA0743
:1002800077080318770FFB07F30DFC0B2129720D7C
:10029000F80DF90DFA0DFB0D7408731C5D29F802B9
:1002A0007508031C750FF9027608031C760FFA0215
:1002B0007708031C770FFB026A29F80775080318F3
:1002C000750FF90776080318760FFA0777080318F1
:1002D000770FFB07F20D0730FC00720DF80DF90DDA
:1002E000FA0DFB0D7408721C8329F8027508031CB3
:1002F000750FF9027608031C760FFA027708031CC3
:10030000770FFB029029F80775080318750FF90796
:1003100076080318760FFA0777080318770FFB079C
:10032000F20DFC0B6D29710DF80DF90DFA0DFB0D99
:100330007408721CA929F8027508031C750FF902CC
:100340007608031C760FFA027708031C770FFB026E
:10035000B629F80775080318750FF907760803180A
:10036000760FFA0777080318770FFB07F10D0730B0
:10037000FC00710DF80DF90DFA0DFB0D7408711CE0
:10038000CF29F8027508031C750FF9027608031CC3
:10039000760FFA027708031C770FFB02DC29F807B7
:1003A00075080318750FF90776080318760FFA0712
:1003B00077080318770FFB07F10DFC0BB929700DB7
:1003C000F80DF90DFA0DFB0D7408711CF529F802F2
:1003D0007508031C750FF9027608031C760FFA02E4
:1003E0007708031C770FFB02022AF8077508031829
:1003F000750FF90776080318760FFA0777080318C0
:10040000770FFB07F00D0730FC00700DF80DF90DAC
:10041000FA0DFB0D7408701C1B2AF8027508031CEA
:10042000750FF9027608031C760FFA027708031C91
:10043000770FFB02282AF80775080318750FF907CC
:1004400076080318760FFA0777080318770FFB076B
:10045000F00DFC0B052A70183B2A7408F807750884
:100460000318750FF90776080318760FFA0777084F
:080470000318770FFB070800D9
:100478004E2A803083160313A800612AC030A800D2
:10048800612A9430A800612AD430A800612A8030FB
:10049800A800612A831603132808013A03193D2A84
:1004A8002808023A0319422A2808033A0319452A58
:1004B8002808043A0319482A4B2A2903F000280877
:1004C800F0077008A8007008AD001D20DB10831627
:1004D800AB012B082A078400000803197C2A2B0883
:1004E8002A0784000008AC0074208316AB0A6D2A22
:0404F800DB14080009
:1004FC0083120313D301D40180305406F0008030F2
:10050C007002031D8B2A0A3053020318A92A553096
:10051C008316A8009C207008D600550803199E2A43
:10052C000130A8000130A9004230AA003C22A52AC3
:10053C000130A800530AA9005608AA003C22D30A8D
:10054C000319D40A822A1A30FB005E30FC006E308C
:10055C00FD008316FD0BAF2AFC0BAF2AFB0BAF2A59
:0A056C0000000130AD001D20080062
:10057600013083160313AD001D2001308316A80039
:100586000130A9002730AA003C223330FB00BB30E3
:10059600FC00DF30FD00FD0BCE2AFC0BCE2AFB0B48
:1005A600CE2A000000000130AD001D205530831614
:1005B600A8009C207008D60055080319EA2A0130C5
:1005C600A8000130A9002E30AA003C22252B56088F
:1005D600313A031DF92A8312061401308316A80046
:1005E6000130A9002C30AA003C22252B5608323AAD
:1005F600031D082B8312061001308316A800013054
:10060600A9002A30AA003C22252B5608333A031D9E
:10061600172B8312861401308316A8000130A90017
:100626003E30AA003C22252B5608343A031D252BC2
:100636008312861001308316A8000130A9004530C8
:0E064600AA003C225608583A031DD92A080083
:10065400203083120313F0004E30F100F201F30155
:0206640008008C
:0E0666008312031361088A00600882000800F6
:10067400013083160313AD001D2001308316A8003A
:100684000130A9004F30AA003C223330FB00BB30BC
:10069400FC00DF30FD00FD0B4D2BFC0B4D2BFB0B49
:1006A4004D2B000000000130AD001D20D301D4010A
:1006B40080305406F00080307002031D632B053037
:1006C40053020318852B55308316A8009C2070080C
:1006D400D60055080319762B0130A8000130A90073
:1006E4003B30AA003C22812B5308313E840056083B
:1006F4000006031D812B8312A50A0319A60AD30A37
:100704000319D40A5A2B831200302606031D8C2B9E
:1007140005302506031D972B01308316A8000130F0
:10072400A9002330AA003C229F2B83160130A80085
:100734000130A9002130AA003C221A30FB005E30AF
:10074400FC006E30FD00FD0BA52BFC0BA52BFB0B59
:0C075400A52B00000130AD001D200800A6
:10076000831203132230FC00F801F901FA01FB01A6
:10077000FC030319E62B0310FB0CFA0CF90CF80C24
:10078000F30CF20CF10CF00C031CB82BFC03031956
:10079000D82B7408F80775080318750FF907760841
:1007A0000318760FFA0777080318770FFB07BC2B9F
:1007B0007408F80775080318750FF9077608031809
:0E07C000760FFA0777080318770FFB0708007B
:1007CE00831203137408003A031D022C7508003AB5
:1007DE00031D022C7608003A031D022C7708003AFE
:1007EE00031D022CFF30F000FF30F100FF30F2004D
:1007FE007F30F3009B2C83120313FC01F71BFC0AC2
:10080E00FD01FB01FA01F901F8017308720471048C
:10081E0070040319962C73087706A000A01BFD091F
:10082E00F71F242CF409F509F609F709F40A031940
:10083E00F50A0319F60A0319F70AF31F312CF0090A
:10084E00F109F209F309F00A0319F10A0319F20A80
:10085E000319F30A73087704A000A01B522C102171
:10086E00FC1B6F2CFD1F962CF009F109F209F30900
:10087E00F00A0319F10A0319F20A0319F30AF80927
:10088E00F909FA09FB09F80A0319F90A0319FA0A10
:10089E000319FB0A962CF71F692CF31B632C7308A4
:1008AE00FB007208FA007108F9007008F800F301F5
:1008BE00F201F101F001392CF301F201F101F00125
:1008CE00F00A0034F309F209F109F009FC17362C8D
:1008DE00F80A0319F90A0319FA0A0319FB0A74082C
:1008EE007802031D392C75087902031D392C760800
:1008FE007A02031D392C77087B02031D392CFB016C
:10090E00FA01F901F801F00A0319F10A0319F20AC2
:10091E000319F30AF31F392CA0012016FF34A0018E
:0A092E007C1C9A2C9020003E08006B
:10093800A12C3A237E22BB22AD2C6208413A03192E
:100948009D2C6208423A03199E2C6208433A031907
:040958009F2C0800C8
:10095C00831203136208DF006308F0000130F20019
:10096C0070080319BD2CF20D7210FF3EB72C7208E3
:10097C00DE007209D9006408F1000130F000710842
:10098C000319CC2CF00D7010FF3EC62C7008D8004B
:10099C00F0097008D7008030620784007208800468
:1009AC0070088005DA0169080319DD2CDA09841353
:1009BC005A08003A0319E52C57088005E72C58080B
:1009CC0080042A23E830F4000330F500F601F70127
:1009DC00B02370088316A4007108A5007208A60045
:1009EC007308A7002408EA002508EB002608EC0091
:1009FC002708ED006508F0006608F1006708F200B2
:100A0C006808F300F00DF10DF20DF30D7010F00D00
:100A1C00F10DF20DF30D70100A30F400F501F60132
:100A2C00F701B02370088316A0007108A1007208AA
:100A3C00A2007308A3007008F4007108F500720896
:100A4C00F6007308F7002408F0002508F1002608CA
:100A5C00F2002708F300E7237008EE007108EF009E
:100A6C007108F400F501740875040319402D023067
:100A7C00F000972D6E08DD0083162008F400210885
:100A8C00F5002208F6002308F7006A08F0006B084E
:100A9C00F1006C08F2006D08F300E7237808F00011
:100AAC007908F1007A08F2007B08F3007008EA007C
:100ABC007108EB007208EC007308ED008316200837
:100ACC00F5002108F6002208F7002308F800F80CBE
:100ADC00F70CF60CF50CF813781BF8178030780629
:100AEC00F400803073067402031D862D72087702A1
:100AFC00031D862D71087602031D862D7008750264
:100B0C000318892DDD0A5D08F100F10CF113710851
:100B1C00DC00073071020318962D0130F000972D80
:040B2C00F0010800CC
:100B300033238A110A128000840AE00A0319E10AA9
:080B4000F003031D982D0800CD
:100B480083160313871107110712871207138713D8
:100B580083128711071187130713871207120920B9
:100B680009200920871607168715032087110920F1
:100B7800871503208711092087150320871109206D
:100B8800071287150320871109208715032087116D
:100B980087128717871503208711092087130716DF
:100BA800871503208711071287150320871109204D
:100BB8008715032087110716871503208711092039
:100BC8000712871503208711871707178716071637
:0C0BD8008715032087110920DB1408009A
:100BE40090268316031387018601A42501308316FA
:100BF400AD001D200C308316AD001D200630E20030
:100C04000630E3000730E4008030E5002530E600DC
:100C1400E701E801E901AE24831203137008D5004B
:100C24007008003C03181F2E01308316A800013001
:100C3400A9004030AA003C221E2E0330FB008A305B
:100C4400FC005530FD00FD0B252EFC0B252EFB0B67
:100C5400252E00000000831603130130A800013084
:100C6400A9004730AA003C221A30FB005E30FC0089
:100C74006E30FD00FD0B3C2EFC0B3C2EFB0B3C2E82
:100C840000005530A8009C207008D60055080319B0
:100C9400532E0130A8000130A9004C30AA003C2298
:0C0CA400562E5608E2009C242D2E572EE0
:100D200021308400323083120313F0005D30E00084
:080D30000630E10098250800DF
:040CBA004634003488
:040CBE005434003476
:040CC20000340034C6
:060CC600533477340034C2
:040CCC007434003448
:040CD0005434003464
:060CD40045343134003408
:100CDA006D34753466346634693400340034003453
:040CEA00003400349E
:060CEE00453431340034EE
:040CF400463400344E
:040CF800453400344B
:060CFC00453431340034E0
:040D0200663400341F
:0A0D06004D346F3464343F34003480
:060D1000453431340034CB
:080D1600503457343F3400341F
:02400E0012009E
:00000001FF
