:020000001628C0
:0E0006008312031332088A00310882000800BA
:1000140003208A110A128000840AB10A0319B20A61
:08002400F003031D0A28080087
:10002C003F3083120313A0000630A1005B30A20006
:10003C004F30A3006630A4006D30A5007D30A600C3
:10004C000730A7007F30A8006F30A9007730AA00D6
:10005C007C30AB003930AC005E30AD007930AE0096
:10006C007130AF000F308316860087018312B00108
:10007C000F300605F0007008B0007008203E8400B8
:08008C00000887003E28492806
:02400E004A2F37
:00000001FF
