:1000000003308A00452B000020100000D424CD22AC
:100010003A1020103A10201D0001C420D4223A10BA
:1000200020102F10A0173218000032308400000872
:10003000031927280430A100A001A00B1D28A10B43
:100040001C28C730A000A00B2328800B1A2808000A
:1000500039182C2886112D288615B9183128061232
:100060003228061639193628861237288616B91905
:100070003B2806133C280617000006150130A00097
:10008000A00B40284328000006110800BA010030E8
:1000900086190130BA040030061A0130A00003109E
:1000A000A00D2008BA040030861A0130A000A00D6F
:1000B000A00DFC30A0052008BA040030061B01305A
:1000C000A000A00DA00DA00DF830A0052008BA04D6
:1000D0003A08A10008008316061106108610831244
:1000E00006108316861506168616061783128614C2
:1000F00000000615000046202108B9000611000086
:1001000006158228000046202108B8000611831633
:1001100086110612861206138312390EA000F030E3
:10012000A00520083804A1002108B800B81B7128D8
:10013000B608031D9D2806109E2806140000861090
:1001400000000611370EB8000F30B8053808B900A6
:10015000282037080F39B800B900282008002830B7
:10016000AC000C30AD000130AE000630AF0006111F
:1001700006108610831686110612861206130611C3
:10018000061086100F308312B20015200130AB002C
:100190002B08033C031CD4280330B9002820053069
:1001A000B2001520AB0AC8280230B900282005305B
:1001B000B2001520AB012B08033C031CEA282C30AD
:1001C0002B0784000008B000B6013008B7006B2090
:1001D000AB0ADB284E2B330BEE28F1284030B4005D
:1001E000F228B40101303202B40734088038B50077
:1001F000B6013508B7006B2008003108073A03192B
:100200000B290B3A03191029063A03191829023A47
:1002100003191E2923290130B200B300EB2028293D
:10022000B6010130B7006B200230B200152028293A
:100230000130B2000230B300EB202829B6011030A3
:10024000B7006B2028290130B6003108B7006B20B9
:1002500008000B08AE008B13831603178C170C14C1
:100260000000000083120313AE1B8B1703170C084A
:100270007F3903197D290313AE0003170D080313FB
:10028000AF0003170F080313B0002E08B100FD20C4
:100290002F0803178D000313300803178F00031373
:1002A0000B08B1008B13831603178C170C14000076
:1002B000000083120313B11B8B1703170C0D0E0DD7
:1002C0007F3903197D290313AE0003170D080313AB
:1002D000AF0003170F080313B0002E08B100FD2074
:1002E0002F0803178D000313300803178F008D0AA2
:1002F00003198F0A03132929031703130800310870
:10030000A1013002031887293008A0009329A00119
:100310000830B200B00DA00D310820020318A00073
:10032000A10DB20B8A29080021082E08B000643004
:10033000B1007F212008AE0021083030031DA7291D
:10034000AF1CAE29AF19AE292F1A2030AA29AF1140
:100350002F122F14A1072108B100FD202E08B00094
:100360000A30B1007F212008AE0021083030031D83
:10037000BF29AF19C3292F1CC3292F1A2030A10769
:100380002108B100FD203030AE072E08B100FD205D
:100390000800AE012E08093C031CD729051DD729EA
:1003A000851DD729AE0A1930B2001520CA290800C8
:1003B000051DD8298519142AAD0AA408031DE429AE
:1003C0002D08173C031CAD01240BEA292D083B3CEA
:1003D000031CAD012408023C031DF4292D081F3C19
:1003E0000318F4290130AD002408033C031DFE2945
:1003F0002D080C3C0318FE290130AD002408043CF4
:10040000031D062A2D08633C031CAD012B08B20016
:100410002C08B300EB202D08AE000130AF00942172
:10042000C830B2001520DA292B08B2002C08B3001E
:10043000EB20043003178D0000308F0003132921B7
:10044000C9212B08B2002C08B300EB202D08AE0008
:100450000130AF009421C9210519322AA40A2D08C0
:10046000A100332ADA2908002B08B0000A30B100B5
:100470007F21210EAC00F030AC052B08B0000A3013
:10048000B1007F2120082C07A10008000830A1003E
:10049000492A4A2A00008510831685104F2A8312A4
:1004A000AB0D0510031C572A83160514831203187D
:1004B0005C2A831605108312831685148312851C0B
:1004C0005F2AA10B482A642A652A0000851083163A
:1004D0008510000005146C2A6D2A85148312851C72
:1004E0006F2AA101732A051821148510831685101F
:1004F0008312051083160510831208000830AC0023
:100500002008AD0083160514852A85148312851CE6
:10051000872A05180314051C0310A10D8F2A902AA1
:1005200000008316851083128510AC0B822A831677
:1005300005149A2A831205102D080319A22A83167E
:10054000051083120000831685148312851CA62AC9
:10055000A92AAA2A0000851083168510AF2A8312C3
:10056000051083160510831208002B0EA0000F3013
:10057000A0052008AD002D08AE000A30AF00A00194
:10058000A1012E0803102F18A007A00CA10CAF1872
:10059000A007A00CA10C2F19A007A00CA10CAF194B
:1005A000A007A00CA10C2F1AA007A00CA10CAF1A39
:1005B000A007A00CA10C2F1BA007A00CA10CAF1B27
:1005C000A007A00CA10C2108AC002B080F392107B3
:1005D000A10008002508AB00B5222108A5002608C7
:1005E000AB00B5222108A6002708AB00B5222108E0
:1005F000A7002808AB00B5222108A8002908AB00F5
:10060000B5222108A9002A08AB00B5222108AA00BA
:100610000D30B2000130B300EB202508AE000130F0
:10062000AF0094210A30B2000130B300EB2026085D
:10063000AE000130AF0094210730B2000130B300AA
:10064000EB202708AE000130AF0094210730B20044
:100650000230B300EB202808AE000130AF00942137
:100660000A30B2000230B300EB202908AE0001309E
:10067000AF0094210F30B2000230B300EB202A0803
:10068000AE000130AF009421452C03081F398300D0
:1006900083161F149F141F158312AF280C30B1004E
:1006A000FD200130B200B300EB20063003178D00AF
:1006B00000308F00031329210130B2000230B30053
:1006C000EB200D3003178D0000308F00031329211C
:1006D0000519E02BA4010730AB000130AC0027085E
:1006E000AD00D8212108A7000A30AB000130AC00D2
:1006F0002608AD00D8212108A6000730AB00023043
:10070000AC002808AD00D8212108A8000A30AB00B1
:100710000230AC002908AD00D8212108A9000F3013
:10072000AB000230AC002A08AD00D8212108AA0095
:100730002608AB0034222108A6002708AB0034228B
:100740002108A7002808AB0034222108A8002908A6
:10075000AB0034222108A9002A08AB00342221086A
:10076000AA0083160514B42BB52B00008514B82BF2
:100770008312051083160510BD2BBE2B00008312BB
:10078000851083168510D0308312AB004622AB0152
:100790004622AB0146222608AB0046222708AB00C2
:1007A00046220130AB0046222808AB004622290829
:1007B000AB0046222A08AB004622C830B200152002
:1007C00083160514E32BE42B00008514E72B83121A
:1007D000851CE82B051083160510EE2BEF2B00006F
:1007E0008312851083168510D0308312AB00462209
:1007F000AB01462283160514FD2BFE2B0000851449
:10080000012C8312851C022C051083160510082C60
:10081000092C00008312851083168510D1308312B5
:10082000AB0046220130A0007E222108A500013045
:10083000A0007E222108A6000130A0007E2221080F
:10084000A7000130A0007E220130A0007E222108F6
:10085000A8000130A0007E222108A900A0017E226C
:100860002108AA0083160510000085148312851C38
:10087000372C3A2C3B2C00003D2C0000831605142D
:10088000412C422C00008312EA2A3230B20015209B
:04089000682B63006E
:02400E00F23F7F
:00000001FF
;PIC16F72
;CRC=BB2E  CREATED="06-Nov-20 13:43"
