:020000000328D3
:100006008316031306108717871B0B2807130C2864
:100016000717071B1028871211288716871A152815
:10002600071216280716071A1A2887111B2887157C
:1000360087191F2807112028071507192428871054
:10004600252887148718292807102A2807148312B9
:10005600071C4B28871C4B28071D4B28871D4B2840
:10006600071A4B28871A4B28071B4B28871B4B2838
:1000760006140B30FB002630FC005D30FD00FD0B46
:100086004228FC0B4228FB0B4228000000004C28AB
:0600960006102A284D2887
:04400E00F23F30004D
:00000001FF
