:02000000B62C1C
:0E000600533083120313FD00FD0B0728080082
:0C001400000000000000000000000800D8
:10002000243083120313FC00B530FD00FD0B1628AD
:0A003000FC0B162800000000080079
:10003A00FB14FB1F2728FF30F300F200F100F00049
:08004A00FA0DF20CFF30080072
:1000520083120313CF1B2F288713302887174F1BB8
:100062003428071335280717CF1A392887123A2858
:1000720087164F1A3E2807123F2807162B184328C7
:1000820007154428071187150A208711CF194B2815
:1000920087134C2887174F19502807135128071721
:1000A200CF1855288712562887164F185A28071234
:1000B2005B2807162B185F2807156028071187157C
:1000C2000A2087112B1C67281020682803200800AB
:1000D2007B15FB1F73280130F300F201F101F001DF
:0800E200FA0DF20CFF300800DA
:0E00EA00F201F101F001F801F301003008000D
:1000F800831203134D08F2007208F100F20A4E0849
:10010800F000CE0A700884000008F000710884002E
:10011800700880007108840000080319942880285A
:060128004D08F000080084
:10012E0083120313FD01F8017008031900347406DD
:10013E00FA00FA1BFD09FB01F41FA728F409F40AC3
:10014E00F01FAB28F009F00A70087404FA00FA1BCD
:10015E00CF287408F802F00D700DF80D7408F8072A
:10016E00F00D0630FC00700DF80D74087018F802D2
:10017E00701CF807F00DFC0BBA28701CF8077B18E2
:10018E00DD28FD1F0034F009F00AF809F80A0034E2
:10019E00F41FDA28F01BD7287008F800F001C828E1
:1001AE00F001F00A0034F009FB0AB028F80A7408CE
:1001BE007802031DC828F801F00AF01FC828FF3482
:0201CE00080027
:0E01D000831203133B088A003A0882000800DD
:1001DE00831203132B104D08CF0029202B14080077
:1001EE0083120313FA017308031D7A147708031D93
:1001FE00FA147A0803194329033A03190E297A18B7
:10020E000B29F61F41293F29F21F3F294129720868
:10021E008039FA00F21376088039F6137A0603193C
:10022E001C297A0803193F294129770873020319FB
:10023E002329031C37293B297608720203192A2920
:10024E00031C37293B297508710203193129031C38
:10025E0037293B29740870020319432903183B29D7
:10026E00FA08031941293F29FA0803193F294129A0
:10027E0003140800031008000314031508000800F7
:10028E0083120313FB017308031D770803199E29BC
:10029E0072087606FA007708F3077E30031C5B2996
:1002AE00F3020318A1295E29F302031CA429720884
:1002BE00F8007108FC007008FD00F817F61703101F
:1002CE00F201F101F0011830A0007D1C78297408AC
:1002DE00F00775080318750FF10776080318760FE7
:1002EE00F207F20CF10CF00CF80CFC0CFD0C0310E8
:1002FE00A00B6C29F21B8829F80DF00DF10DF20DF3
:10030E00F3037B1B701C9A29F81F9A29F00A031914
:10031E00F10A0319F20A031D9A29F20CF10CF00CE2
:10032E00F30A0319A129FA1FF2130030A62901308E
:10033E007520A62902301D20A62904306920000050
:02034E000800A5
:10035000BA29803083120313BC00CD29C030BC0001
:10036000CD299430BC00CD29D430BC00CD298030BB
:10037000BC00CD29831203133C08013A0319A929B3
:100380003C08023A0319AE293C08033A0319B12983
:100390003C08043A0319B429B7293D03F0003C088E
:1003A000F0077008BC007008CF0029202B10BF0197
:1003B0003F083E07840000080319E6293F083E076E
:1003C00084000008CD00EF20BF0AD8292B140800B4
:1003D000E8208A110A128000840ABA0A0319BB0AAB
:0803E000F003031DE8290800E9
:1003E80083120313C801C901CA01CB01CC013C081F
:1003F800C4003D08C5003E08C6003F08C7004708BE
:10040800FF3A031D112A4608FF3A031D112A450821
:10041800FF3A031D112A4408FF3A031D1B2A40080E
:10042800CD002330CE007C200330F000672C013053
:10043800C200C61F2B2A80304606F0007008C6008E
:10044800C20AC90A400884002D308000C00A003062
:10045800F0004706031D3A2A70084606031D3A2A8B
:1004680070084506031D3A2A4408003A031D432A2A
:100478004008CD002130CE007C20F001672C4708D1
:10048800FF3A031D512A4608003A031D512A450820
:10049800003A031D512A4408003A031D5B2A40080C
:1004A800CD002730CE007C204208F000672C0030B9
:1004B800F4000030F5000030F6007F30F700440803
:1004C800F0004508F1004608F2004708F300F7205D
:1004D800013003180030F000700803198E2A440810
:1004E800F0004508F1004608F2004708F300003024
:1004F800F4000030F5002030F6008230F700472184
:100508007008C4007108C5007208C6007308C700E7
:10051800CC035B2A0030F4000030F5002030F600F0
:100528008230F7004408F0004508F1004608F20060
:100538004708F300F7200130031C0030F000700872
:100548000319C12A4408F0004508F1004608F200E2
:100558004708F300CD30F400CC30F5004C30F600FD
:100568007B30F70047217008C4007108C500720885
:10057800C6007308C700CC0A8E2AFF304405F8006D
:10058800FF304505F9007F304605FA000030470581
:10059800FB007808F4007908F5007A08F6007B0873
:1005A800F700F40DF50DF60DF70D74100030440545
:1005B800F00000304505F10000304605F200FF303C
:1005C8004705F3007008C4007108C5007208C6002A
:1005D8007308C70074084404F00075084504F10066
:1005E80076084604F20077084704F3007008C40050
:1005F8007108C5007208C6007308C7007F3047023B
:10060800F0007008C3000130C7007008F400440807
:10061800F0004508F1004608F2004708F3007408A6
:1006280003191D2BF00DF10DF20DF30D7010FF3EA7
:10063800142B7008C4007108C5007208C60073083E
:10064800C7004708303EF00040088400700880006A
:10065800C00AC90A80304C06F0008030013A7002A6
:10066800031C3F2B8030063AF00080304C067002A5
:10067800031C3F2B472B400884002E308000C00A03
:100688000130C800C90A0630C3004308003A0319FC
:10069800A92BC7014408F0004508F1004608F200FC
:1006A8004708F300F00DF10DF20DF30D7010F00D89
:1006B800F10DF20DF30D70104408F007450803180A
:1006C800450FF10746080318460FF20747080318B5
:1006D800470FF3077008C4007108C5007208C60008
:1006E8007308C7004408F0004508F1004608F20006
:1006F8004708F300F00DF10DF20DF30D70107008BE
:10070800C4007108C5007208C6007308C70047080E
:10071800303EF0004008840070088000C00AC90A12
:100728004808003A031DA72BCC034C08003A031DC8
:10073800A72B0130CB00400884002E308000C00A6F
:100748000130C800C90AC303492B4B08013A031DED
:10075800AE2BC903FF304007840000082E3A031D62
:10076800B72BC003C9038030003AF00080304C0634
:1007780070020318C12B0130CA0080304C06F0000B
:100788008030003A70020318CB2B0230CA004C08A4
:10079800C3008030093AF00080304C067002031C18
:1007A800D72BCA0AD92B0230CA074A084907F100D1
:1007B800F2010318F20A80307206F00080307002ED
:1007C800031DE82B410871020318F12B400884002F
:1007D80030308000C00AC90AD92B4C08003A0319E6
:1007E8002E2C4008840065308000C00A80304C06FA
:1007F800F0008030003A700203180A2C4008840088
:100808002D308000C00A4C08003CCC004C08C300C6
:100818008030093AF00080304C0670020318202C12
:100828000A30F4004308F00097203030F007400801
:10083800840070088000C00A0A30F4004308F00001
:1008480097207808F0003030F007400884007008DE
:100858008000C00A4A084907F0007008C90041082A
:100868007002F1007108C3008030003AF000803057
:100878007106700203184C2C8030003AF00080306A
:100888004306700203184B2CC303C003402C632C8F
:1008980080304306F0008030003A70020318632C61
:1008A80080304306F0008030003A70020318632C51
:1008B800C30A4008840030308000C00A542C400825
:0808C80084008001F00108002A
:1008D0008316031387110711071287120713871353
:1008E000831287110711871307138712071210202D
:1008F000102010208716071687150A208711102050
:1009000087150A208711102087150A2087111020CB
:10091000071287150A208711102087150A208711D2
:100920008712871787150A2087111020871307164B
:1009300087150A208711071287150A2087111020B2
:1009400087150A208711071687150A20871110209E
:10095000071287150A2087118717071787160716AA
:0C09600087150A20871110202B140800B6
:10096C00EA2468240130CF0029200C30CF00292044
:10097C00C830B6004D30B7004E30B8008330B900E7
:10098C00C830BC004D30BD004E30BE008330BF00BF
:10099C002C30C0000730C100F4210130BC00013004
:0A09AC00BD002C30BE00A821DA2C9B
:1009D400213084000A3083120313F000E030BA009F
:0809E4000430BB00E82108000B
:0409C000303400349B
:0809C4004E3461344E3400345E
:0809CC0049344E344634003476
:02400E005A0056
:00000001FF
