:02000000AB282B
:10000600710DF80DF90D7408F8027508031C750FCB
:10001600F902F00DF10D0F30FC00710DF80DF90D20
:100026007408701C1C28F8027508031C750FF90269
:100036002128F80775080318750FF907F00DF10D5B
:10004600FC0B102870182D287408F807750803187B
:08005600750FF9070000080016
:0E005E008312031331088A0030088200080064
:10006C002F208A110A128000840AB00A0319B10ADF
:08007C00F003031D3628080003
:10008400831203137408003A031D51287508003ABB
:10009400031D5128FF30F0007F30F100AA2883129D
:1000A4000313FD01F901F801710870040319003408
:1000B40071087506FA00FA1BFD09FB01F51F672894
:1000C400F409F509F40A0319F50AF11F6E28F00979
:1000D400F109F00A0319F10A71087504FA00FA1B10
:1000E400832803207B189628FD1F0034F009F109AA
:1000F400F00A0319F10AF809F909F80A0319F90AC7
:100104000034F51F9228F11B8E287108F90070083D
:10011400F800F101F0017628F101F001F00A003451
:10012400F109F009FB0A7328F80A0319F90A74089B
:100134007802031D762875087902031D7628F901D3
:10014400F801F00A0319F10AF11F76280000FF34C0
:020154000800A1
:1001560083120313A001A1013F30A2000630A300C1
:100166005B30A4004F30A5006630A6006D30A700B6
:100176007D30A8000730A9007F30AA006730AB00A9
:100186008316860187018312AC01AD0180302D06EE
:10019600F00080307002031DD2280C302C020318A8
:1001A6008D29AE01AF0180302F06F000803070023D
:1001B600031DDF283C302E0203188929B201B30142
:1001C60080303306F00080307002031DEC283C308E
:1001D6003202031885290A30F4000030F5002E0893
:1001E600F0002F08F10042207008223E840000082B
:1001F600B800B9010030B9000A30F4000030F5004B
:100206002E08F0002F08F10042207808F000790847
:10021600F1007008223E84000008BA00BB010030DD
:10022600BB000A30F4000030F5003208F000330855
:10023600F10042207008223E84000008B600B70193
:100246000030B7000A30F4000030F5003208F00044
:100256003308F10042207808F0007908F1007008B0
:10026600223E84000008B400B5010030B500A001AC
:10027600A1018030033AF000803021067002031D90
:1002860046292008E83C031C812907123808860005
:100296002130FC007630FD00FD0B4F29FC0B4F2969
:1002A6000000071687123A0886002130FC007630D7
:1002B600FD00FD0B5C29FC0B5C290000871607136B
:1002C600360886002130FC007630FD00FD0B6929DA
:1002D600FC0B6929000007178713340886002130B4
:1002E600FC007630FD00FD0B7629FC0B762900001C
:1002F60087171430A0070318A10A3C29B20A03196C
:10030600B30AE328AE0A0319AF0AD628AC0A0319C2
:06031600AD0AC9288D2983
:02400E0012009E
:00000001FF
