:02000000CB290A
:0C000600000000000000000000000800E6
:0E001200533083120313FD00FD0B0D28080070
:10002000243083120313FC00B530FD00FD0B1628AD
:0A003000FC0B162800000000080079
:10003A0083120313F801F9011030FC00710DF80D59
:10004A00F90D7408F8027508031C750FF9020318F4
:10005A0035287408F80775080318750FF90703108F
:0A006A00F00DF10DFC0B2328080037
:1000740083120313D71B4028871341288717571B64
:100084004528071346280717D71A4A2887124B28EA
:100094008716571A4F280712502807164118542854
:1000A400071555280711871503208711D7195C28D0
:1000B40087135D28871757196128071362280717C4
:1000C400D718662887126728871657186B280712CF
:1000D4006C28071641187028071571280711871511
:1000E40003208711411C7828102079280920080052
:1000F4008312031341105208D7003A204114080018
:0E0104008312031343088A0042088200080099
:1001120083120313D5010530550203189728550899
:100122005407840020308000D50A8C2855085407D3
:1001320084008001D50355085407D6000A30F40024
:10014200F5015208F0005308F1001D207808F00074
:100152007908F1003030F0075608840070088000FA
:100162000A30F400F5015208F0005308F1001D2096
:100172007008D2007108D30000307106031DC32835
:1001820000307006031DC628C828D5039C28080025
:1001920083120313CE01CF014908D0004A08D100CF
:1001A20080304A06F00080307002031DDA280030E9
:1001B20049020318E8280130CE000030CF00490878
:1001C200003CD0004A08031C013ED101D102500874
:1001D200D2005108D3004B08D40089200630CC004D
:1001E2000030CD004D08003C031DF9284C08003CAE
:1001F200031814294C084B07F20001304C02F0009E
:100202000030031C013E4D02F10070084B078400D0
:100212000008F00072088400700880000130CC02EF
:10022200031CCD03F3284B088400203080004E08C5
:100232004F0403193229CC01CD014C084B0784002D
:100242000008203A031D2929CC0A0319CD0A1E29C8
:100252000130CC02031CCD034C084B0784002D3027
:040262008000080010
:100266004529803083120313C9005629C030C900BE
:1002760056299430C9005629D430C90056298030F1
:10028600C90056294908013A031934294908023A8E
:10029600031939294908033A03193C294908043A3C
:1002A60003193F2942294A03F0004908F00770085C
:1002B600C9007008D7003A204110CC014C084B0702
:1002C6008400000803196F294C084B0784000008B6
:0C02D600D2007A20CC0A612941140800F3
:1002E20082208A110A128000840AC20A0319C30AF0
:0802F200F003031D712908004F
:1002FA00831603138711071107128712071387132F
:10030A008312871107118713071387120712102008
:10031A001020102087160716871503208711102032
:10032A0087150320871110208715032087111020B5
:10033A0007128715032087111020871503208711BC
:10034A00871287178715032087111020871307162E
:10035A00871503208711071287150320871110209C
:10036A008715032087110716871503208711102088
:10037A00071287150320871187170717871607168D
:0C038A0087150320871110204114080083
:10039600623083120313A0007530A1007430A200EE
:1003A6007430A3006F30A4006E30A5002030A60084
:1003B6007230A7006530A8006C30A9006530AA002D
:1003C6006130AB007330AC006530AD006430AE0018
:1003D600AF01B001B1016230B2007530B3007430C4
:1003E600B4007430B5006F30B6006E30B700203000
:1003F600B8007030B9007230BA006530BB00733097
:10040600BC007330BD006530BE006430BF00C00163
:100416008316870106147D210130D7003A200C305F
:10042600D7003A2006183C2AB00A0319B10A01304F
:10043600C9000130CA003230CB0033213008C90070
:100446003108CA004430CB00C9200230C90001304F
:10045600CA004430CB0033210D30FB00AF30FC0026
:10046600B630FD00FD0B352AFC0B352AFB0B352A71
:1004760000000130C9000130CA002030CB00332112
:100486000D30FB00AF30FC00B630FD00FD0B492AF5
:0E049600FC0B492AFB0B492A0000152A512AAB
:02400E0012009E
:00000001FF
