:02000000262BAD
:10000800FF00030E8301BC000A08BB008A017008C8
:10001800A0000B1D22280B113D3081000130A302E6
:10002800031CA403FF302406031D1C28FF302306ED
:10003800031D22280130A902031CAA032008F0008E
:0E0048003B088A003C0E8300FF0E7F0E09006D
:10005600710DF80DF90D7408F8027508031C750F7B
:10006600F902F00DF10D0F30FC00710DF80DF90DD0
:100076007408701C4428F8027508031C750FF902F1
:100086004928F80775080318750FF907F00DF10DE3
:10009600FC0B3828701855287408F80775080318DB
:0800A600750FF90700000800C6
:1000AE0087308316031381008312810107108B1290
:0200BE00080038
:1000C000831203137408003A031D6F287508003A61
:1000D000031D6F28FF30F0007F30F100C828831225
:1000E0000313FD01F901F8017108700403190034CC
:1000F00071087506FA00FA1BFD09FB01F51F85283A
:10010000F409F509F40A0319F50AF11F8C28F0091E
:10011000F109F00A0319F10A71087504FA00FA1BD3
:10012000A1282B207B18B428FD1F0034F009F10909
:10013000F00A0319F10AF809F909F80A0319F90A8A
:100140000034F51FB028F11BAC287108F9007008C5
:10015000F800F101F0019428F101F001F00A0034F7
:10016000F109F009FB0A9128F80A0319F90A740841
:100170007802031D942875087902031D9428F9015B
:10018000F801F00A0319F10AF11F94280000FF3466
:02019000080065
:1001920083120313071401303F02A9000030031C2D
:1001A200013E4002AA003C30A3000030A400873088
:1001B200831681003D30831281008B1680302A061F
:1001C200F00080307002031DE82800302902031C71
:1001D2007C290A30F4000030F5002908F0002A08D2
:1001E200F10060207008A1007108A2000A30F4003A
:1001F2000030F5002908F0002A08F1006020780894
:10020200F0007908F1007008A7007108A8000A3010
:10021200F4000030F5002308F0002408F10060200B
:100222007008A5007108A6000A30F4000030F5003D
:100232002308F0002408F10060207808F000790813
:10024200F1007008B7007108B800071D2B29871D3F
:100252002B293A290830FB009D30FC000530FD00B7
:10026200FD0B3129FC0B3129FB0B31290000000069
:100272007D29071221082D3E8400000886002130C6
:10028200FC007630FD00FD0B4429FC0B44290000E4
:100292000716871227082D3E84008030000786004B
:1002A2002130FC007630FD00FD0B5529FC0B552951
:1002B20000008716071325082D3E840000088600DB
:1002C2002130FC007630FD00FD0B6529FC0B652911
:1002D20000000717871337082D3E840000088600A8
:1002E2002130FC007630FD00FD0B7529FC0B7529D1
:0A02F20000008717DF2857200800DE
:0E02FC00831203133A088A00390882000800B2
:10030A0083120313071787170A30F4000030F50029
:10031A002908F0002A08F10060207008BD00710861
:10032A00BE003D08A1003E08A2000A30F4000030D9
:10033A00F5002908F0002A08F10060207808F0008A
:10034A007908F1007008A7007108A80007123D0893
:10035A002D3E8400000886002130FC007630FD0026
:10036A00FD0BB529FC0BB5290000071687122708D3
:10037A002D3E8400000886002130FC007630FD0006
:10038A00FD0BC529FC0BC529000087160719DF29B3
:10039A000630FB001330FC00AD30FD00FD0BD32905
:1003AA00FC0BD329FB0BD32900000000A90A03196F
:1003BA00AA0AF8298719F8290830FB009D30FC00A1
:1003CA000530FD00FD0BE729FC0BE729FB0BE729AC
:1003DA00000000002908BF002A08C000C920071031
:0A03EA00A901AA01F92989290800D8
:1003F40083120313071787170A30F4000030F5003F
:100404002908F0002A08F10060207008BD00710876
:10041400BE003D08A1003E08A2000A30F4000030EE
:10042400F5002908F0002A08F10060207808F0009F
:100434007908F1007008A7007108A80007123D08A8
:100444002D3E8400000886002130FC007630FD003B
:10045400FD0B2A2AFC0B2A2A0000071687122708FC
:100464002D3E8400000886002130FC007630FD001B
:10047400FD0B3A2AFC0B3A2A000087160719552A65
:100484000630FB001330FC00AD30FD00FD0B482AA4
:10049400FC0B482AFB0B482A000000000A30A9077D
:1004A4000318AA0A6E2A87196E2A0830FB009D30A9
:1004B400FC000530FD00FD0B5D2AFC0B5D2AFB0BE7
:1004C4005D2A000000002908BF002A08C000C920D6
:0C04D4000710A901AA016F2AFE290800E8
:1004E000831203138713871B772A0713782A0717AA
:1004F000071B7C2A87127D2A8716871A812A0712F2
:10050000822A07162D088600AB01AC0180302C062C
:10051000F00080307002031D8F2A06302B02031872
:10052000D12A0719A82A0830FB009D30FC000530AD
:10053000FD00FD0B992AFC0B992AFB0B992A000060
:1005400000000F30BF000030C000C9200710F02AA3
:100550008719BF2A0830FB009D30FC000530FD00E4
:10056000FD0BB02AFC0BB02AFB0BB02A00000000E8
:100570001930BF000030C000C9205720F02A0230D7
:10058000FB004530FC00A930FD00FD0BC52AFC0B2B
:10059000C52AFB0BC52A00000000AB0A0319AC0AF0
:1005A000862A8717871BD62A0713D72A0717071B00
:1005B000DB2A8712DC2A8716871AE02A0712E12A2B
:1005C00007160330FB008A30FC005530FD00FD0BA0
:1005D000E72AFC0BE72AFB0BE72A00000000702A41
:0205E000080011
:1005E2008312031387170719062B0830FB009D306F
:1005F200FC000530FD00FD0BFC2AFC0BFC2AFB0B6A
:10060200FC2A000000008521192B8719182B0830BD
:10061200FB009D30FC000530FD00FD0B0E2BFC0B9A
:100622000E2BFB0B0E2B00000000FA21192BF42AD3
:020632000800BE
:100634007E218A110A128000840AB90A0319BA0AAF
:08064400F003031D1A2B08004E
:10064C0083120313A101A201A301A401A501A60118
:10065C00A701A801A901AA01AB01AC013F30AD0073
:10066C000630AE005B30AF004F30B0006630B100EA
:10067C006D30B2007D30B3000730B4007F30B50070
:10068C006F30B600B701B801831686018312871547
:10069C008719522B0711532B0715873083168100AE
:1006AC0083128101A0308B0083168713871B602B6C
:1006BC000713612B0717071B652B8712662B8716F1
:1006CC00871A6A2B07126B2B0716071A6F2B07104A
:1006DC00702B071483128717871B762B0713772B26
:1006EC000717071B7B2B87127C2B8716871A802BEF
:1006FC000712812B07168713871B862B0713872B53
:10070C000717071B8B2B87128C2B8716871A902B9E
:10071C000712912B07162D0886000719A52B0830F8
:10072C00FB009D30FC000530FD00FD0B9B2BFC0BF2
:10073C009B2BFB0B9B2B000000007022B62B871908
:10074C00B62B0830FB009D30FC000530FD00FD0B86
:10075C00AD2BFC0BAD2BFB0BAD2B00000000F122E5
:04076C00812BB72BFB
:02400E0041006F
:00000001FF
