:02000000DD29F8
:0400060000000800EE
:0E000A0010308312DD00DD0B08280000080016
:1000180008308312DC002330DD00DD0B1128DC0BF7
:040028001128080093
:10002C008312BE1B1B2887121C2887163E1B2028F8
:10003C00071221280716BE1A25288711262887158E
:10004C003E1A2A2807112B28071532182F280714B7
:10005C0030280710871403208710BE193728871201
:10006C00382887163E193C2807123D280716BE185B
:10007C0041288711422887153E1846280711472822
:10008C00071532184B2807144C2807108714032027
:0E009C008710321C53280C2054280520080021
:0C00AA00831236088A0035088200080026
:0C00B60007308312DD00DD0B5E2808001F
:1000C200510DD80DD90D5408D8025508031C550FEF
:1000D200D902D00DD10D0F30DC00510DD80DD90D44
:1000E2005408501C7A28D8025508031C550FD9020F
:1000F2007F28D80755080318550FD907D00DD10D01
:10010200DC0B6E2850188B285408D80755080318A2
:08011200550FD9070000080099
:0E011A00831232103D08BE0016203214080079
:10012800C33083129F052009D00050089F05F03086
:1001380083169F0483129F173908D000D00D5010E2
:10014800D00D501050089F041F145B209F149F1C53
:10015800AF280000AB281F101E08D100D00183165D
:0A0168001E08D0040030D104080086
:10017200CA2880308312B900DB28C030B900DB28DE
:100182009430B900DB28D430B900DB288030B900C4
:10019200DB283908013A0319BA283908023A031947
:1001A200BE283908033A0319C1283908043A031949
:1001B200C428C7283A03D0003908D0075008B9002C
:1001C2005008BE0016203210BC013C083B078400D8
:1001D20000080319F4283C083B0784000008BD000E
:0A01E2008D20BC0AE6283214080044
:1001EC0083120313D8010830DC00500DD80D5408CD
:1001FC00D80203180329D8070310D00DDC0BFB28F9
:02020C000800E8
:10020E0083125408003A031D15295508003A031DA0
:10021E001529FF30D0007F30D1006E2983120313D1
:10022E00DD01D901D80151085004031900345108D9
:10023E005506DA00DA1BDD09DB01D51F2B29D4099F
:10024E00D509D40A0319D50AD11F3229D009D109EB
:10025E00D00A0319D10A51085504DA00DA1B4729CE
:10026E0061205B185A29DD1F0034D009D109D00A4C
:10027E000319D10AD809D909D80A0319D90A0034A1
:10028E00D51F5629D11B52295108D9005008D80024
:10029E00D101D0013A29D101D001D00A0034D109BF
:1002AE00D009DB0A3729D80A0319D90A540858028B
:1002BE00031D3A2955085902031D3A29D901D801BF
:1002CE00D00A0319D10AD11F3A290000FF340800C1
:1002DE0083168710071007118711071287128312D2
:1002EE008710071087120712871107110C200C2098
:1002FE000C20871507158714032087100C208714F0
:10030E00032087100C208714032087100C20071160
:10031E008714032087100C20871403208710871161
:10032E0087168714032087100C2087120715871451
:10033E000320871007118714032087100C208714C1
:10034E000320871007158714032087100C20071130
:10035E00871403208710871607168715071587142D
:0A036E00032087100C203214080051
:1003780055208A110A128000840AB50A0319B60AA0
:08038800D003031DBC2908008D
:10039000FF308312A900FF30AA00FF30AB00FF300E
:1003A000C3309F052009D00050089F05F030831608
:0A03B0009F0483129F171F1408001A
:1003BA005422023083169100FF308500C8216F2134
:1003CA000C30BE0016200130B9000130BA002130CD
:1003DA00BB00B9200230B90094205008B700510878
:1003EA00B8003708B3003808B400E830D400033046
:1003FA00D5003708D0003808D10007210A30D400C8
:10040A00F6205808D00030305007AC006430D400D1
:10041A000030D5003708D0003808D10007210A304B
:10042A00D400F6205808D00030305007AD000A300A
:10043A00D4000030D5003708D0003808D100072191
:10044A000A30D400F6205808D00030305007AE00E9
:10045A000A30D4000030D5003708D0003808D1005F
:10046A0007215808D0005908D10030305007AF0092
:10047A000230B9000130BA002C30BB00B920EF2994
:02048A00452A01
:1004A8002030840009308312D0004B30B500023070
:0604B800B600BC210800A3
:020496004034F0
:10049800563461346C34753465343D34203400345A
:02400E00F2318D
:00000001FF
