:02000000232AB1
:10000600103083120313FD00FD0B072800000800C3
:10001600083083120313FC002330FD00FD0B11286A
:06002600FC0B112808008C
:04002C0000000800C8
:1000300083120313CA1B1E2886131F2886174A1B08
:100040002328061324280617CA1A282886122928C6
:1000500086164A1A2D2806122E280616BD18322892
:10006000061533280611861516208611CA193A2856
:1000700086133B2886174A193F280613402806177F
:10008000CA1844288612452886164A184928061296
:100090004A280616BD184E2806154F280611861543
:1000A00016208611BD1C56280B2057280320080057
:1000B000073084000008000883120313F000701258
:0600C0007008800008003A
:1000C600073084000008000883120313F000F011C3
:0600D60070088000080024
:1000DC0083160313071616201620871516201620D4
:1000EC0058208316071216201620632083168711BA
:0200FC000800FA
:0E00FE00831203133F088A003E0882000800A8
:10010C0083120313BD104408CA001820BD14080044
:10011C00013083120313C7000030C8008030C500C3
:10012C00C601450846040319C428162016201620BB
:10013C00162063208316871116201620831245087B
:10014C004405F00000304605F100700871040319F5
:10015C00B22883160716B5285820831607121620C6
:10016C001620871583123D108719C0283D1CBF2807
:10017C00C028BA28C60CC50CC6139728C701C801DD
:10018C0016201620632083168711162016200716BA
:10019C001620162016201620871583123D1087195D
:1001AC00DB283D1CDA28DB28D528C701C80116201E
:1001BC001620071EE228471416201620162016209B
:1001CC001620162016201620162016201620162073
:1001DC00162016201620162063208316871158200F
:0C01EC008316071283124708F000080079
:1001F80083120313C601C7018030C8000030C9004C
:1002080048084904031927291620162083160716BB
:1002180016201620871583123D10871917293D1CB3
:10022800162917291129071E1D294808C604490837
:10023800C704162016206320831687118312C90C61
:10024800C80CC91304298316071616201620831212
:1002580044084504031933295820831607128316C6
:1002680016201620871583123D1087193F293D1C3B
:100278003E293F2939291620162063208316871125
:100288001620162058208316071283124608F000FD
:0202980008005C
:10029A0058208316071216201620871583123D1040
:1002AA0087195B293D1C5A295B29552916201620D6
:1002BA00162016201620162016201620831607163A
:0602CA00162016200800BA
:1002D0006E20D0308312C4008E204008C4008E20CF
:1002E0006E20D1308312C4008E200130C400003053
:0802F000C500FC204D210800AF
:1002F800831603138715071683123D10871988295B
:0A0308003D1C87298829822908007E
:10031200831603138611061106128612061386131C
:1003220083128611061186130613861206120B20FB
:100332000B200B20861606168615162086110B201A
:100342008615162086110B208615162086110B2085
:1003520006128615162086110B2086151620861188
:10036200861286178615162086110B20861306160E
:1003720086151620861106128615162086110B2068
:1003820086151620861106168615162086110B2054
:100392000612861516208611861706178616061669
:0C03A2008615162086110B20BD140800E3
:1003AE00E929803083120313C000FC29C030C0003D
:1003BE00FC299430C000FC29D430C000FC298030C8
:1003CE00C000FC29831203134008013A0319D829EF
:1003DE004008023A0319DD294008033A0319E029BF
:1003EE004008043A0319E329E6294103F0004008C6
:1003FE00F0077008C0007008CA001820BD10C301B5
:10040E0043084207840000080319152A43084207CF
:10041E0084000008C4008620C30A072ABD14080001
:10042E007F208A110A128000840ABE0A0319BF0AAD
:08043E00F003031D172A08005A
:10044600543083120313A0006930A1006D30A2005E
:100456006530A3003A30A4002030A5002030A60065
:100466003A30A7002030A8002030A9003A30AA0070
:100476002030AB002030AC00AD014430AE0061301E
:10048600AF007430B0006530B1003A30B2002030B1
:10049600B3002030B4002D30B5002030B600203037
:1004A600B7002D30B8002030B9002030BA00BB01AB
:1004B60089210C30CA0018200130CA0018207C217E
:1004C6008230FC00DD30FD00FD0B672AFC0B672A3D
:1004D600000000006E20D0308312C4008E20C401BC
:1004E6008E20C4018E202030C4008E205130C400DE
:1004F6008E200430C4008E201430C4008E200730B5
:10050600C4008E202130C4008E204D218312C001EC
:10051600682170088312BC00A5010F307005A60083
:100526000130C000682170088312BC00A8010F309A
:100536007005A9000230C000682170088312BC0053
:10054600AB010F307005AC000430C00068217008A4
:100556008312BC00B3010F307005B4000530C00033
:10056600682170088312BC00B6010F307005B70011
:100576000630C000682170088312BC00B9010F3034
:100586007005BA000130C0000130C1002030C20041
:10059600D7210230C0000130C1002E30C200D72161
:0405A600892AD42AA0
:02400E004A2F37
:00000001FF
