:020000000629CF
:0E000600533083120313FD00FD0B0728080082
:10001400243083120313FC00B530FD00FD0B1028BF
:0A002400FC0B10280000000008008B
:0C002E00000000000000000000000800BE
:10003A0083120313B61B2328871324288717361B1A
:10004A002828071329280717B61A2D2887122E28B9
:10005A008716361A32280712332807162E18372819
:10006A00071538280711871517208711B6193F2851
:10007A008713402887173619442807134528071776
:10008A00B618492887124A28871636184E280712A2
:10009A004F2807162E1853280715542807118715B5
:1000AA00172087112E1C5B280A205C2803200800D1
:0E00BA008312031330088A002F08820008000A
:1000C800831203132E103508B6001D202E140800C5
:1000D8008316031387110711071287120713871353
:1000E80083128711071187130713871207120A2033
:1000F8000A200A20871607168715172087110A2055
:100108008715172087110A208715172087110A20BD
:1001180007128715172087110A20871517208711BE
:10012800871287178715172087110A208713071644
:1001380087151720871107128715172087110A209E
:1001480087151720871107168715172087110A208A
:10015800071287151720871187170717871607169D
:0C0168008715172087110A202E140800AC
:10017400CC28803083120313B100DF28C030B100D3
:10018400DF289430B100DF28D430B100DF2880307C
:10019400B100DF28831203133108013A0319BB2885
:1001A4003108023A0319C0283108033A0319C32855
:1001B4003108043A0319C628C9283203F00031086B
:1001C400F0077008B1007008B6001D202E10B401AD
:1001D40034083307840000080319F8283408330767
:1001E40084000008B5006420B40AEA282E1408002C
:1001F4005D208A110A128000840AAF0A0319B00A2A
:08020400F003031DFA280800B5
:10020C00703083120313A0007230A1006530A2007D
:10021C007330A3007330A4006530A5006430A600D1
:10022C00A7014830A8006530A9006C30AA006C30DA
:10023C00AB006F30AC00AD018316061086106C203D
:10024C000C30B6001D200130B6001D200130B1006D
:10025C000130B2002830B300BA2006184E2986149B
:10026C000230B1000130B2002030B300BA201A3095
:10027C00FB005E30FC006E30FD00FD0B4329FC0BD7
:10028C004329FB0B4329000086100130B6001D20CA
:04029C0033294F298A
:02400E0012009E
:00000001FF
