:0200000089284D
:1000060083120313FB01FA01F9018030F800F10CA9
:10001600F00C031C17287408F90775080318750FE8
:10002600FA070318FB0A0310F01F1F287408FA07C3
:1000360075080318750FFB07FB0CFA0CF90CF80C86
:10004600031C0A287B08F3007A08F2007908F100FD
:060056007808F00008002C
:0E005C008312031323088A0022088200080082
:0C006A008312031395011712971208006F
:100076002E208A110A128000840AA20A0319A30AF2
:08008600F003031D3B280800F4
:10008E00831603131208013EF000F1010318F10A62
:10009E0083122408F400F50103200630F2007008E4
:1000AE00F4007108F500720803196228F50CF40CBF
:1000BE00F513FF3E5B280430F1007408F000710860
:1000CE0003196D28F00D7010FF3E67283030700553
:1000DE00F3007408F0007508F100F10CF00CF11348
:1000EE00F10CF00CF113700895000F3097057308A2
:0400FE00970408005B
:10010200831603130711831212150C30970408008B
:1001120083120313A001A1018316870183128701B1
:1001220012109210C7308316920035208120A00150
:10013200A10180302106F00080307002031DA32847
:100142005A3020020318B7282008A4004720823022
:10015200FC00DD30FD00FD0BAC28FC0BAC280000E0
:1001620000000230A0070318A10A9A2820082104DF
:100172000319CD282008A40047208230FC00DD307E
:10018200FD00FD0BC228FC0BC2280000000002305B
:0C019200A002031CA103B7289828CE2867
:02400E004A2F37
:00000001FF
