:020000003628A0
:0E000600831203132A088A00290882000800CA
:1000140003208A110A128000840AA90A0319AA0A71
:08002400F003031D0A28080087
:10002C008312031306142D08870086140230FC007B
:10003C004B30FD00FD0B2028FC0B202886100800FF
:10004C008312031306102D08870086140230FC005F
:10005C004B30FD00FD0B3028FC0B302886100800BF
:10006C004D3083120313A0005530A1004630A2007E
:10007C004130A3004430A4004430A5004130A60018
:10008C004C30A700A801831686018701013083122A
:10009C00AD0026200230FC004B30FD00FD0B542837
:1000AC00FC0B54280C30AD0026200230FC004B30E9
:1000BC00FD00FD0B5F28FC0B5F283830AD002620BF
:1000CC000230FC004B30FD00FD0B6A28FC0B6A284B
:1000DC00AB01AC0180302C06F00080307002031DA7
:1000EC00792808302B02031897282B08803EAD0086
:1000FC0026202B08203E84000008AD001620063078
:10010C00FB001330FC00AD30FD00FD0B8B28FC0B0D
:10011C008B28FB0B8B2800000000AB0A0319AC0AE0
:04012C007028972878
:02400E004A2F37
:00000001FF
