:02000000ED29E8
:10000800FF00030E8301C2000A08C3008A017008BA
:10001800A2007C08A1007D08A0000B1C32288321C7
:10002800B6214103F0000130F200700803192028BE
:10003800F20D7210FF3E1A283B08033EF0007008CC
:10004800F1000130F000710803192E28F00D70102E
:10005800FF3E28287008720488000B102208F00060
:100068002108FC002008FD0043088A00420E830096
:06007800FF0E7F0E0900DF
:10007E00103083120313FD00FD0B4328000008000F
:04008E000000080066
:10009200083083120313FC002330FD00FD0B4F28B0
:0600A200FC0B4F280800D2
:1000A80083120313C91B5A2887135B288717491B18
:1000B8005F28071360280717C91A6428871265285C
:1000C8008716491A692807126A2807163C186E28E5
:1000D80007156F280711871547208711C919762832
:1000E80087137728871749197B2807137C28071750
:1000F800C918802887128128871649188528071269
:10010800862807163C188A2807158B280711871593
:10011800472087113C1C9228492093283F2008003B
:10012800831203133C104808C90054203C140800EB
:0E0138008312031340088A003F08820008006B
:10014600B528803083120313C400C828C030C40009
:10015600C8289430C400C828D430C400C8288030C9
:10016600C400C828831203134408013A0319A428BB
:100176004408023A0319A9284408033A0319AC288B
:100186004408043A0319AF28B2284503F00044088E
:10019600F0077008C4007008C90054203C10C7015D
:1001A60047084607840000080319E1284708460760
:1001B60084000008C8009420C70AD3283C1408000D
:1001C60083120313F8010830FC00700DF80D740853
:1001D600F8020318F028F8070310F00DFC0BE828C6
:0201E60008000F
:1001E8008316031387110711071287120713871342
:1001F80083128711071187130713871207124920E3
:100208004920492087160716871547208711492056
:1002180087154720871149208715472087114920CE
:10022800071287154720871149208715472087110E
:1002380087128717871547208711492087130716C4
:1002480087154720871107128715472087114920EE
:1002580087154720871107168715472087114920DA
:10026800071287154720871187170717871607165C
:0C02780087154720871149203C1408001E
:100284005429803083120313C4006729C030C4008A
:1002940067299430C4006729D430C40067298030AA
:1002A400C4006729831203134408013A031943293C
:1002B4004408023A031948294408033A03194B290C
:1002C4004408043A03194E2951294503F00044080F
:1002D400F0077008C4003C147008C90054203C1096
:0A02E4004608C90054203C1408002D
:1002EE009C208A110A128000840ABF0A0319C00AD0
:0802FE00F003031D772908003D
:10030600F030831203130605BD00BD0CBD13BD0CF2
:10031600BD13BD0CBD13BD0CBD13BD09BE0104301C
:100326003E020318B5293E08F2000130F000003005
:10033600F10072080319A429F00DF10D7010FF3EAB
:100346009D293D08F0050030F10570087104031978
:10035600B3293E0AF0007008BD007008BB00B5293D
:06036600BE0A9229080006
:10036C0083120313BE0104303E020318DD293E083C
:10037C00F1000130F00071080319C829F00D70105C
:10038C00FF3EC229700986000608F100F10CF1133A
:10039C00F10CF113F10CF113F10CF11371080F3A8C
:1003AC000319DB293E0AC100DD29BE0AB929023036
:1003BC00FB000430FC00BA30FD00FD0BE329FC0B04
:0E03CC00E329FB0BE3290000F0308600080057
:1003DA00433083120313A3006F30A4006C30A500CE
:1003EA007530A6006D30A7006E30A8002030A90035
:1003FA007030AA006F30AB007330AC003A30AD00F9
:10040A00AE015230AF006F30B0007730B10020300B
:10041A00B2007030B3006F30B4007330B5003A30B8
:10042A00B6002030B7002030B8002030B900BA0139
:10043A00F4200C30C90054200130C9005420F03097
:10044A0083168600F030831286008316870188019E
:10045A008312870188018B178B150B100130C4009A
:10046A000130C5002F30C600A3200130C4000F3070
:10047A00C5000A30F4004108F000E3207808F000D3
:10048A0030307007C60042210230C4000130C50076
:10049A002330C600A3200230C4000F30C5000A3042
:1004AA00F4003B08F000E3207808F00030307007D1
:0804BA00C6004221332A602A2A
:02400E004A2F37
:00000001FF
