:02000000912944
:0E000600533083120313FD00FD0B0728080082
:0C001400000000000000000000000800D8
:10002000243083120313FC00B530FD00FD0B1628AD
:0A003000FC0B162800000000080079
:10003A0083120313BA1B23288612242886163A1B16
:10004A002828061229280616BA1A2D2886112E28BB
:10005A0086153A1A32280611332806152D1837281C
:10006A0006143828061086140A208610BA193F2862
:10007A008612402886163A1944280612452806167A
:10008A00BA18492886114A2886153A184E280611A0
:10009A004F2806152D1853280614542806108614BE
:1000AA000A2086102D1C5B2810205C2803200800DB
:1000BA00831203132D103908BA001D202D140800CD
:1000CA007728803083120313B5008A28C030B50020
:1000DA008A289430B5008A28D430B5008A2880301E
:1000EA00B5008A28831203133508013A03196628D2
:1000FA003508023A03196B283508033A03196E28A2
:10010A003508043A0319712874283603F0003508B3
:10011A00F0077008B5007008BA001D202D10B8014C
:10012A0038083707840000080319A3283808370756
:10013A0084000008B9005D20B80A95282D1408002B
:0E014A00831203132F088A002E08820008007B
:10015800BE28803083120313B500D128C030B50003
:10016800D1289430B500D128D430B500D1288030BA
:10017800B500D128831203133508013A0319AD28B5
:100188003508023A0319B2283508033A0319B52885
:100198003508043A0319B828BB283603F000350897
:1001A800F0077008B5002D147008BA001D202D1036
:0A01B8003708BA001D202D140800BE
:1001C200403083120313BA001D20B2013208073CEB
:1001D200031CFD283208D13EF00001300318013E15
:1001E200F1007008AE007108AF00A5208A110A1252
:1001F200B9005D20B20AE7280230BA001D2030089B
:0C020200B5003108B600B701AC200800C0
:10020E0083160313860101308312BA001D203008B5
:10021E00B5003208B6003408B70065200D30FB007B
:10022E00AF30FC00B630FD00FD0B1B29FC0B1B296B
:10023E00FB0B1B2900003008B5003208B600203039
:10024E00B70065200D30FB00AF30FC00B630FD006E
:10025E00FD0B2F29FC0B2F29FB0B2F29000008006B
:10026E00A5208A110A128000840AAE0A0319AF0A69
:08027E00F003031D37290800FD
:1002860083160313861006100611861106128612AF
:100296008312861006108612061286110611102089
:1002A600102010208615061586140A2086101020A8
:1002B60086140A208610102086140A208610102024
:1002C600061186140A208610102086140A2086102D
:1002D6008611861686140A208610102086120615A8
:1002E60086140A208610061186140A20861010200D
:1002F60086140A208610061586140A2086101020F9
:10030600061186140A208610861606168615061508
:0C03160086140A20861010202D14080008
:10032200203083120313A0002030A1002030A2004D
:100332002030A3002030A4002030A500A6014830C0
:10034200A7006530A8006C30A9006C30AA006F309D
:10035200AB00AC0143210130BA001D200C30BA00C1
:100362001D200130B0000030B1000130B200003079
:10037200B3002730B40007213230B0003130B10071
:10038200E1201A30FB005E30FC006E30FD00FD0BF8
:10039200C829FC0BC829FB0BC8290000B229D029A7
:1003A20000340A340034113411340E340034003471
:02400E0012009E
:00000001FF
