:02000000F529E0
:10000600710DF80DF90D7408F8027508031C750FCB
:10001600F902F00DF10D0F30FC00710DF80DF90D20
:100026007408701C1C28F8027508031C750FF90269
:100036002128F80775080318750FF907F00DF10D5B
:10004600FC0B102870182D287408F807750803187B
:08005600750FF9070000080016
:10005E00831203137408003A031D3E287508003AF4
:10006E00031D3E28FF30F0007F30F10097288312E9
:10007E000313FD01F901F80171087004031900342E
:10008E0071087506FA00FA1BFD09FB01F51F5428CD
:10009E00F409F509F40A0319F50AF11F5B28F009B2
:1000AE00F109F00A0319F10A71087504FA00FA1B36
:1000BE00702803207B188328FD1F0034F009F109F6
:1000CE00F00A0319F10AF809F909F80A0319F90AED
:1000DE000034F51F7F28F11B7B287108F90070088A
:1000EE00F800F101F0016328F101F001F00A00348B
:1000FE00F109F009FB0A6028F80A0319F90A7408D5
:10010E007802031D632875087902031D6328F9011F
:10011E00F801F00A0319F10AF11F63280000FF34F9
:02012E000800C7
:0E0130008312031339088A0038088200080081
:10013E008312031307143A08A0003B08A100803075
:10014E002106F00080307002031DAF28003020021F
:10015E00031C6B293B30B4000030B50080303506EF
:10016E00F00080307002031DBE2800303402031CE4
:10017E0066290A30F4000030F5002008F00021084E
:10018E00F1002F207008B6007108B7000A30F40095
:10019E000030F5002008F0002108F1002F2078082B
:1001AE00F0007908F1007008A8007108A9000A3063
:1001BE00F4000030F5003408F0003508F1002F206F
:1001CE007008A2007108A3000A30F4000030F50098
:1001DE003408F0003508F1002F207808F000790877
:1001EE00F1007008A4007108A500A601A7018030D7
:1001FE002706F00080307002031D072932302602D8
:10020E0003186129871D0E29071D0E291C291A3076
:10021E00FB005E30FC006E30FD00FD0B1429FC0B64
:10022E001429FB0B142900006B29071236082A3EED
:10023E008400000886002130FC007630FD00FD0BA6
:10024E002629FC0B262900000716871228082A3EAD
:10025E0084008030000786002130FC007630FD00DF
:10026E00FD0B3729FC0B37290000871607132208D0
:10027E002A3E8400000886002130FC007630FD0006
:10028E00FD0B4729FC0B472900000717871324088D
:10029E002A3E8400000886002130FC007630FD00E6
:1002AE00FD0B5729FC0B572900008717A60A0319C7
:1002BE00A70AFE280130B402031CB503B52801308D
:0A02CE00A002031CA103A6280800EB
:1002D8008312031307108713871B742907137529C3
:1002E8000717071B792987127A298716871A7E2903
:1002F80007127F290716A001A10180302106F0000E
:1003080080307002031D8A29063020020318C9298B
:100318000719A1291A30FB005E30FC006E30FD0081
:10032800FD0B9429FC0B9429FB0B942900000E303B
:10033800BA000030BB009F20B5298719B5291A30AB
:10034800FB005E30FC006E30FD00FD0BA929FC0BA4
:10035800A929FB0BA92900001830BA000030BB00FE
:100368009F202A0886000230FB004530FC00A93097
:10037800FD00FD0BBD29FC0BBD29FB0BBD290000B1
:100388000000A00A0319A10A81298717871BCE2913
:100398000713CF290717071BD3298712D4298716D4
:1003A800871AD8290712D92907160330FB008A3083
:1003B800FC005530FD00FD0BDF29FC0BDF29FB0B92
:0A03C800DF29000000006C29080086
:1003D20098208A110A128000840AB80A0319B90AFD
:0803E200F003031DE9290800E6
:1003EA0083120313A001A101A201A301A401A50183
:1003FA00A601A701A801A9013F30AA000630AB0057
:10040A005B30AC004F30AD006630AE006D30AF00EF
:10041A007D30B0000730B1007F30B2006F30B300DA
:10042A00B401B501B601B70183168601071507198C
:10043A00202A8711212A87158713871B262A071343
:10044A00272A0717071B2B2A87122C2A8716871A8F
:10045A00302A0712312A0716071A352A0710362AB0
:10046A00071483128717871B3C2A07133D2A07178D
:10047A00071B412A8712422A8716871A462A071219
:0E048A00472A0716013086006C21492A4B2AAA
:02400E0012009E
:00000001FF
