:020000001E29B7
:10000800FF00030E8301A7000A08A6008A017C08E6
:10001800A1007D08A0008C1E21281A08A500033025
:10002800FB008A30FC005530FD00FD0B1928FC0B45
:100038001928FB0B1928000000002108FC002008E3
:10004800FD0026088A00270E8300FF0E7F0E090098
:10005800103083120313FD00FD0B30280000080048
:10006800083083120313FC002330FD00FD0B3A28EF
:06007800FC0B3A28080011
:04007E000000080076
:1000820083120313AB1B47288613482886172B1BA2
:100092004C2806134D280617AB1A512886125228EF
:1000A20086162B1A562806125728061624185B287D
:1000B20006155C28061186153F208611AB196328A8
:1000C2008613642886172B196828061369280617D1
:1000D200AB186D2886126E2886162B187228061207
:1000E200732806162418772806157828061186150F
:1000F2003F208611241C7F28342080282C200800D1
:1001020019308316031399001815181283129817C1
:100112008316981683121812831618138312181353
:020122000800D3
:10012400831603138611061106128612061386130C
:1001340083128611061186130613861206123420C2
:10014400342034208616061686153F208611342066
:1001540086153F208611342086153F2086113420D1
:10016400061286153F208611342086153F208611FD
:100174008612861786153F208611342086130616AC
:1001840086153F208611061286153F2086113420DD
:1001940086153F208611061686153F2086113420C9
:1001A400061286153F208611861706178616061630
:0C01B40086153F2086113420241408001A
:1001C000F228803083120313A8000529C030A8004C
:1001D00005299430A8000529D430A80005298030CD
:1001E000A8000529831203132808013A0319E128FE
:1001F0002808023A0319E6282808033A0319E928CF
:100200002808043A0319EC28EF282903F0002808ED
:10021000F0077008A80024147008AB0041202410D7
:0A0220002A08AB0041202414080056
:10022A008B170B17831603130C168C1683128C125A
:02023A000800BA
:10023C008316031307138717152181209220013091
:10024C00AB0041200C30AB0041200130A800013044
:0C025C00A9002508AA00E0202B29332966
:02400E004A2F37
:00000001FF
